{
  "contractName": "Transfer",
  "abi": [
    {
      "inputs": [],
      "payable": false,
      "stateMutability": "nonpayable",
      "type": "constructor",
      "signature": "constructor"
    },
    {
      "anonymous": false,
      "inputs": [
        {
          "indexed": false,
          "name": "_to",
          "type": "address"
        },
        {
          "indexed": false,
          "name": "_from",
          "type": "address"
        },
        {
          "indexed": false,
          "name": "amt",
          "type": "uint256"
        }
      ],
      "name": "Pay",
      "type": "event",
      "signature": "0x288d9a5737d39d766acb848da277a970d9ee31f9115e17490b9393e282fa7b4d"
    },
    {
      "constant": false,
      "inputs": [
        {
          "name": "_to",
          "type": "address"
        }
      ],
      "name": "pay",
      "outputs": [
        {
          "name": "",
          "type": "bool"
        }
      ],
      "payable": true,
      "stateMutability": "payable",
      "type": "function",
      "signature": "0x0c11dedd"
    }
  ],
  "bytecode": "0x608060405234801561001057600080fd5b50336000806101000a81548173ffffffffffffffffffffffffffffffffffffffff021916908373ffffffffffffffffffffffffffffffffffffffff160217905550610265806100606000396000f3fe608060405260043610610041576000357c0100000000000000000000000000000000000000000000000000000000900463ffffffff1680630c11dedd14610046575b600080fd5b6100886004803603602081101561005c57600080fd5b81019080803573ffffffffffffffffffffffffffffffffffffffff1690602001909291905050506100a2565b604051808215151515815260200191505060405180910390f35b600081600160006101000a81548173ffffffffffffffffffffffffffffffffffffffff021916908373ffffffffffffffffffffffffffffffffffffffff160217905550600160009054906101000a900473ffffffffffffffffffffffffffffffffffffffff1673ffffffffffffffffffffffffffffffffffffffff166108fc349081150290604051600060405180830381858888f1935050505015801561014d573d6000803e3d6000fd5b507f288d9a5737d39d766acb848da277a970d9ee31f9115e17490b9393e282fa7b4d600160009054906101000a900473ffffffffffffffffffffffffffffffffffffffff166000809054906101000a900473ffffffffffffffffffffffffffffffffffffffff1634604051808473ffffffffffffffffffffffffffffffffffffffff1673ffffffffffffffffffffffffffffffffffffffff1681526020018373ffffffffffffffffffffffffffffffffffffffff1673ffffffffffffffffffffffffffffffffffffffff168152602001828152602001935050505060405180910390a16001905091905056fea165627a7a723058201095d6d2a34ef7a5b28624853726d89ce42ca4c03ace62f0f521e90cf72cc1e10029",
  "source": "pragma solidity ^0.5.0;\n\ncontract Transfer {\n  address payable from;\n  address payable to;\n\n  constructor() public {\n    from = msg.sender;\n  }\n\n  event Pay(address _to, address _from, uint amt);\n\n  function pay( address payable _to ) public payable returns (bool) {\n      to = _to;\n      to.transfer(msg.value);\n      emit Pay(to, from, msg.value);\n      return true;\n  }\n}\n",
  "sourcePath": "/Users/Eli/Desktop/Book/BlockchainDeveloperBook/chapter9/ethdapp/truffle/contracts/Transfer.sol",
  "compiler": {
    "name": "solc",
    "version": "0.5.0+commit.1d4f565a.Emscripten.clang"
  },
  "schemaVersion": "3.0.2",
  "updatedAt": "2019-03-03T17:17:25.365Z",
  "devdoc": {
    "methods": {}
  },
  "userdoc": {
    "methods": {}
  }
}