{
  "contractName": "MD5SmartContract",
  "abi": [
    {
      "constant": true,
      "inputs": [],
      "name": "signature",
      "outputs": [
        {
          "name": "",
          "type": "bytes32"
        }
      ],
      "payable": false,
      "stateMutability": "view",
      "type": "function",
      "signature": "0x51ff4847"
    },
    {
      "inputs": [],
      "payable": false,
      "stateMutability": "nonpayable",
      "type": "constructor",
      "signature": "constructor"
    },
    {
      "anonymous": false,
      "inputs": [
        {
          "indexed": false,
          "name": "signature",
          "type": "bytes32"
        }
      ],
      "name": "signEvent",
      "type": "event",
      "signature": "0xacbf54c45310551f30611466b27938991b0c8e68b476ca487ebb7f3ecadf6dab"
    },
    {
      "constant": false,
      "inputs": [
        {
          "name": "document",
          "type": "string"
        }
      ],
      "name": "sign",
      "outputs": [],
      "payable": false,
      "stateMutability": "nonpayable",
      "type": "function",
      "signature": "0x79d6348d"
    }
  ],
  "bytecode": "0x608060405234801561001057600080fd5b50610258806100206000396000f3fe60806040526004361061004c576000357c0100000000000000000000000000000000000000000000000000000000900463ffffffff16806351ff48471461005157806379d6348d1461007c575b600080fd5b34801561005d57600080fd5b50610066610144565b6040518082815260200191505060405180910390f35b34801561008857600080fd5b506101426004803603602081101561009f57600080fd5b81019080803590602001906401000000008111156100bc57600080fd5b8201836020820111156100ce57600080fd5b803590602001918460018302840111640100000000831117156100f057600080fd5b91908080601f016020809104026020016040519081016040528093929190818152602001838380828437600081840152601f19601f82011690508083019250505050505050919291929050505061014a565b005b60005481565b6002816040518082805190602001908083835b602083101515610182578051825260208201915060208101905060208303925061015d565b6001836020036101000a038019825116818451168082178552505050505050905001915050602060405180830381855afa1580156101c4573d6000803e3d6000fd5b5050506040513d60208110156101d957600080fd5b81019080805190602001909291905050506000819055507facbf54c45310551f30611466b27938991b0c8e68b476ca487ebb7f3ecadf6dab6000546040518082815260200191505060405180910390a15056fea165627a7a723058200c99ff02b4c3658c4d25c3ad6413342535d4adff59171e95f099456060654be40029",
  "source": "pragma solidity ^0.5.0;\ncontract MD5SmartContract {\n  bytes32 public signature;\n  event signEvent(bytes32 signature);\n  constructor() public {\n  }\n  function sign(string memory document) public {\n    signature = sha256(bytes(document));\n    emit signEvent(signature);\n  }\n}\n",
  "sourcePath": "/Users/Eli/Desktop/MySmartContract/contracts/MD5SmartContract.sol",
  "compiler": {
    "name": "solc",
    "version": "0.5.0+commit.1d4f565a.Emscripten.clang"
  },
  "schemaVersion": "3.0.8",
  "updatedAt": "2019-04-28T13:53:38.579Z",
  "devdoc": {
    "methods": {}
  },
  "userdoc": {
    "methods": {}
  }
}